:1000000034C000005AC0000058C0000056C00000B4
:1000100054C0000052C0000050C000004EC000009C
:100020004CC000004AC0000048C0000046C00000AC
:1000300044C000000C942F0D40C000003EC00000E2
:100040000C94A70E3AC000000C9456100C94881023
:1000500034C0000032C0000030C000002EC00000DC
:100060002CC000002AC00000AD1011241FBECFEF2D
:10007000D8E0DEBFCDBF11E0A0E0B1E0E2E6F2E201
:1000800002C005900D92A431B107D9F722E0A4E196
:10009000B1E001C01D92AA38B207E1F710E0C5E354
:1000A000D0E004C02197FE010E942911C433D1077A
:1000B000C9F70E94920D0C942F11A2CF4F925F921C
:1000C0006F927F928F929F92AF92BF92CF92DF9268
:1000D000EF92FF92CF93DF93CDB7DEB7AC970FB619
:1000E000F894DEBF0FBECDBF8091C301833009F409
:1000F000B9C400F5813009F4F0C1823009F4EBC2D3
:100100008091C2012091C1019091C0013091BF0145
:10011000313011F00C94F70C913011F40C94A80BC1
:10012000213011F40C94290A813011F00C942C0A1E
:100130000C946D0B853009F4C0C708F41DC68630D9
:10014000F9F61092BF011092C00181E08093C101C5
:100150008093C201C090D401D090D501E090D60127
:10016000F090D7014090CC015090CD016090CE012D
:100170007090CF01A3019201C701B6010E94C90D81
:100180006D877E878F87988B8091D0019091D10168
:10019000A091D201B091D30189839A83AB83BC83B0
:1001A000A3019201BC01CD010E94C90D6D8B7E8B14
:1001B0008F8B988FA701960169817A818B819C81B1
:1001C0000E94C90D698F7A8F8B8F9C8F80916C02F2
:1001D00090916D02A0916E02B0916F0289879A870B
:1001E000AB87BC879C01AD01C301B2010E942E0EFA
:1001F000181614F00C94B90C8091C8019091C901A3
:10020000A091CA01B091CB018D839E83AF83B88743
:100210009C01AD0169817A818B819C810E94C90D0D
:100220006D8F7E8F8F8F98A32D813E814F81588552
:10023000C701B6010E94C90D69A37AA38BA39CA331
:100240008091680290916902A0916A02B0916B025C
:10025000898B9A8BAB8BBC8B9C01AD016D817E81B0
:100260008F8198850E942E0E18160CF48AC08090FB
:10027000780290907902A0907A02B0907B022D8D46
:100280003E8D4F8D58A1C501B4010E942E0E181647
:10029000E4F029853A854B855C85C301B2010E9453
:1002A0002E0E181694F02D853E854F855889609145
:1002B0007C0270917D0280917E0290917F020E946B
:1002C0002E0E181614F00C94A80B29A13AA14BA1DC
:1002D0005CA1C501B4010E942E0E1816E4F0298518
:1002E0003A854B855C85C301B2010E942E0E18161B
:1002F00094F02D893E894F89588D60917C027091D0
:100300007D0280917E0290917F020E942E0E18162F
:1003100014F00C94A80B2D8D3E8D4F8D58A1C50166
:10032000B4010E942E0E181614F00C946D0B29A126
:100330003AA14BA15CA1C501B4010E942E0E181672
:1003400004F120917402309175024091760250912F
:100350007702C701B6010E942E0E181694F0298D5F
:100360003A8D4B8D5C8D60918402709185028091F5
:100370008602909187020E942E0E181614F00C949B
:100380006D0B29813A814B815C81C701B6010E94C6
:10039000C90D6B017C0129893A894B895C896D8182
:1003A0007E818F8198850E942E0E181694F029A1C7
:1003B0003AA14BA15CA16091780270917902809181
:1003C0007A0290917B020E942E0E181614F00C9463
:1003D000290A8090700290907102A0907202B090F1
:1003E0007302A501940169817A818B819C810E94AD
:1003F0002E0E181664F1A70196016091800270918B
:10040000810280918202909183020E942E0E181622
:10041000F4F029893A894B895C896D817E818F81CD
:1004200098850E942E0E181694F02D8D3E8D4F8DBE
:1004300058A1609178027091790280917A0290912E
:100440007B020E942E0E181614F00C94290A29859E
:100450003A854B855C85C301B2010E942E0E1816A9
:100460000CF4FAC740907C0250907D0260907E02AE
:1004700070907F022D853E854F855889C301B2015A
:100480000E942E0E181614F00C941D0B2D893E8917
:100490004F89588DC301B2010E942E0E18160CF41C
:1004A000DBC7A501940169817A818B819C810E94BF
:1004B0002E0E18160CF4D0C7A70196016091800289
:1004C0007091810280918202909183020E942E0E8F
:1004D000181614F00C941D0BBFC71092C101109296
:1004E000C2018093BF018093C0018091C8019091A7
:1004F000C901A091CA01B091CB0189839A83AB83D2
:10050000BC83C090D001D090D101E090D201F09096
:10051000D301A7019601BC01CD010E94C90D698BD1
:100520007A8B8B8B9C8B8091CC019091CD01A0918B
:10053000CE01B091CF018D839E83AF83B887A70191
:100540009601BC01CD010E94C90D6D877E878F8702
:10055000988B29813A814B815C816D817E818F816D
:1005600098850E94C90D6DA37EA38FA398A7809044
:10057000700290907102A0907202B0907302A50177
:100580009401C701B6010E942E0E18160CF051C737
:100590008091680290916902A0916A02B0916B0209
:1005A00089A39AA3ABA3BCA39C01AD0169817A8105
:1005B0008B819C810E942E0E18164CF12DA13EA11C
:1005C0004FA158A5609178027091790280917A02CA
:1005D00090917B020E942E0E1816CCF0A50194017A
:1005E000C701B6010E942E0E18168CF029893A898F
:1005F0004B895C89609180027091810280918202B6
:10060000909183020E942E0E18160CF022C7409083
:10061000D4015090D5016090D6017090D701A3010C
:10062000920169817A818B819C810E94C90D6D8BB9
:100630007E8B8F8B988FA30192016D817E818F813C
:1006400098850E94C90D6D8F7E8F8F8F98A38091A2
:10065000740290917502A0917602B0917702898719
:100660009A87AB87BC87A5019401C701B6010E9498
:100670002E0E18160CF405C729893A894B895C8916
:100680006091800270918102809182029091830238
:100690000E942E0E18160CF4F4C629853A854B8557
:1006A0005C85C301B2010E942E0E18160CF4E9C637
:1006B0002D8D3E8D4F8D58A16091840270918502E1
:1006C00080918602909187020E942E0E18160CF4DB
:1006D000E1C686E0BFC61092C0011092C20181E05F
:1006E0008093BF018093C1018091D0019091D1018D
:1006F000A091D201B091D30189839A83AB83BC834B
:10070000C090C801D090C901E090CA01F090CB011F
:10071000A7019601BC01CD010E94C90D698F7A8F96
:100720008B8F9C8F8090CC019090CD01A090CE01BA
:10073000B090CF01A5019401C701B6010E94C90D77
:100740006D877E878F87988BA501940169817A8157
:100750008B819C810E94C90D6D8B7E8B8F8B988FB6
:1007600080916C0290916D02A0916E02B0916F0227
:100770008D839E83AF83B8879C01AD01C501B40111
:100780000E942E0E18160CF0AAC78091D4019091E9
:10079000D501A091D601B091D70189879A87AB87FF
:1007A000BC879C01AD0169817A818B819C810E940B
:1007B000C90D6D8F7E8F8F8F98A329853A854B85C4
:1007C0005C85C701B6010E94C90D69A37AA38BA3FA
:1007D0009CA38091740290917502A0917602B091D1
:1007E0007702898B9A8BAB8BBC8B9C01AD016985A1
:1007F0007A858B859C850E942E0E18160CF43CC0C1
:10080000409084025090850260908602709087022A
:100810002D8D3E8D4F8D58A1C301B2010E942E0E29
:1008200018160CF05AC729A13AA14BA15CA1C3012B
:10083000B2010E942E0E1816FCF020916802309131
:10084000690240916A0250916B02C701B6010E9491
:100850002E0E18168CF0298D3A8D4B8D5C8D609183
:1008600078027091790280917A0290917B020E94C5
:100870002E0E18160CF031C729813A814B815C810C
:10088000C701B6010E94C90D2B013C012D813E819B
:100890004F815885C501B4010E942E0E18168CF0A8
:1008A0002D853E854F85588960917C0270917D022F
:1008B00080917E0290917F020E942E0E18160CF0FD
:1008C000BCC68091700290917102A0917202B091A9
:1008D0007302898F9A8FAB8FBC8F9C01AD016981A8
:1008E0007A818B819C810E942E0E18160CF432C7DF
:1008F000A301920160918002709181028091820235
:10090000909183020E942E0E18160CF423C72D819D
:100910003E814F815885C501B4010E942E0E1816E4
:100920000CF418C72D893E894F89588D60917C023F
:1009300070917D0280917E0290917F020E942E0E26
:1009400018160CF07AC62D853E854F855889609122
:100950007C0270917D0280917E0290917F020E94C4
:100960002E0E18160CF400C729893A894B895C8928
:1009700069857A858B859C850E942E0E18160CF44D
:10098000F3C62D8D3E8D4F8D58A1609184027091DC
:10099000850280918602909187020E942E0E181681
:1009A0000CF003C6C0908402D0908502E0908602CD
:1009B000F090870229A13AA14BA15CA1C701B60121
:1009C0000E942E0E1816DCF02D813E814F81588535
:1009D000C501B4010E942E0E18168CF02D893E8997
:1009E0004F89588D60917C0270917D0280917E02CA
:1009F00090917F020E942E0E18160CF0D6C529A1E8
:100A00003AA14BA15CA1C701B6010E942E0E181697
:100A10000CF05FCE2D8D3E8D4F8D58A1C701B601D4
:100A20000E942E0E18160CF417C5298D3A8D4B8D89
:100A30005C8D69817A818B819C810E942E0E1816B3
:100A40000CF40AC5A30192016091800270918102A9
:100A500080918202909183020E942E0E18160CF053
:100A600038CEFAC41092C0011092C10181E0809387
:100A7000BF018093C2018091D4019091D501A091D2
:100A8000D601B091D70189839A83AB83BC83C09090
:100A9000D001D090D101E090D201F090D301A70114
:100AA0009601BC01CD010E94C90D698B7A8B8B8B9D
:100AB0009C8B8091C8019091C901A091CA01B0910D
:100AC000CB018D839E83AF83B887A7019601BC01BC
:100AD000CD010E94C90D6D877E878F87988B2D81F0
:100AE0003E814F81588569817A818B819C810E94EA
:100AF000C90D6DA37EA38FA398A7809070029090DC
:100B00007102A0907202B0907302A5019401C70116
:100B1000B6010E942E0E18160CF033C680916802A2
:100B200090916902A0916A02B0916B0289A39AA385
:100B3000ABA3BCA39C01AD016D817E818F819885A3
:100B40000E942E0E18164CF12DA13EA14FA158A5C2
:100B5000609178027091790280917A0290917B0283
:100B60000E942E0E1816CCF0A5019401C701B60103
:100B70000E942E0E18168CF02D853E854F855889C3
:100B80006091800270918102809182029091830233
:100B90000E942E0E18160CF05CC44090CC015090B0
:100BA000CD016090CE017090CF01A30192016981C7
:100BB0007A818B819C81EDD76D8B7E8B8F8B988F0B
:100BC000A30192016D817E818F819885E2D76D8F1F
:100BD0007E8F8F8F98A380916C0290916D02A0916F
:100BE0006E02B0916F0289879A87AB87BC879C01A0
:100BF000AD01C301B2010E942E0E18160CF451C0B3
:100C000080917C0290917D02A0917E02B0917F0242
:100C1000898F9A8FAB8FBC8F2D8D3E8D4F8D58A1B4
:100C2000BC01CD010E942E0E1816CCF0A501940136
:100C3000C701B6010E942E0E18168CF029893A8938
:100C40004B895C896091800270918102809182025F
:100C5000909183020E942E0E18160CF0EEC42D897E
:100C60003E894F89588D698D7A8D8B8D9C8DF6D7F5
:100C70001816BCF0A5019401C701B601EFD71816EC
:100C800084F02D853E854F85588960918002709152
:100C900081028091820290918302E0D718160CF0B5
:100CA000CCC429813A814B815C816D817E818F81A9
:100CB00098856FD7698F7A8F8B8F9C8FA501940150
:100CC000C701B601CBD7181684F02D853E854F8518
:100CD0005889609180027091810280918202909186
:100CE0008302BCD718160CF0F4CC8091740290915A
:100CF0007502A0917602B09177028D879E87AF87AB
:100D0000B88B9C01AD0169817A818B819C81A6D7CA
:100D100018160CF447C5298D3A8D4B8D5C8D60916A
:100D2000840270918502809186029091870296D705
:100D30001816BCF0A5019401C701B6018FD718168B
:100D400084F029893A894B895C896091800270918D
:100D50008102809182029091830280D718160CF054
:100D6000B8CC29853A854B855C85C301B20176D71D
:100D700018160CF021C56CC51092BF011092C2016B
:100D800081E08093C0018093C1014090D0015090D8
:100D9000D1016090D2017090D301C090D401D09065
:100DA000D501E090D601F090D701A7019601C301CB
:100DB000B201EFD6698B7A8B8B8B9C8B8091CC01A7
:100DC0009091CD01A091CE01B091CF0189839A83FA
:100DD000AB83BC83A7019601BC01CD01DAD66D8738
:100DE0007E878F87988B8090C8019090C901A090D2
:100DF000CA01B090CB01A501940169817A818B81F0
:100E00009C81C7D66D8B7E8B8F8B988FA5019401AB
:100E1000C301B201BED66D8F7E8F8F8F98A3809154
:100E2000680290916902A0916A02B0916B02898771
:100E30009A87AB87BC878091740290917502A091CC
:100E40007602B09177028D839E83AF83B887298520
:100E50003A854B855C85C501B40100D718160CF0A6
:100E600022C52D813E814F815885C701B601F6D636
:100E700018160CF042C529813A814B815C81C3016F
:100E8000B20187D6698F7A8F8B8F9C8F2D813E819F
:100E90004F815885C701B601E1D618160CF440C041
:100EA0008091840290918502A0918602B091870280
:100EB00089A39AA3ABA3BCA329893A894B895C89EE
:100EC000BC01CD01CBD618160CF06FC32D853E8525
:100ED0004F85588969A17AA18BA19CA1BFD618160C
:100EE000FCF020916C0230916D0240916E025091A5
:100EF0006F0269817A818B819C81B0D6181684F04B
:100F0000298D3A8D4B8D5C8D60917C0270917D02B4
:100F100080917E0290917F02A1D618160CF045C3F5
:100F2000A301920169817A818B819C8132D669A368
:100F30007AA38BA39CA329853A854B855C85C50143
:100F4000B4018CD618160CF46AC080907802909088
:100F50007902A0907A02B0907B022D893E894F8958
:100F6000588DC501B4017AD618160CF072C22D8DB9
:100F70003E8D4F8D58A1C501B40170D61816ECF006
:100F8000209170023091710240917202509173026F
:100F9000C301B20163D6181684F029A13AA14BA16E
:100FA0005CA1609180027091810280918202909197
:100FB000830254D618160CF04CC22D8D3E8D4F8DE9
:100FC00058A1C501B4014AD618160CF0C1C32D8929
:100FD0003E894F89588DC501B40140D61816FCF0E2
:100FE00020916C0230916D0240916E0250916F021F
:100FF00069817A818B819C8131D6181684F0298D84
:101000003A8D4B8D5C8D60917C0270917D02809158
:101010007E0290917F0222D618160CF099C32D8182
:101020003E814F815885C701B60118D6181684F045
:101030002D853E854F855889609184027091850287
:10104000809186029091870209D618160CF041CB48
:10105000209170023091710240917202509173029E
:10106000C301B201FBD518160CF4F6C129A13AA1AF
:101070004BA15CA1609180027091810280918202FB
:1010800090918302EBD518160CF4E6C12D813E81B8
:101090004F815885C701B601E1D518160CF4DCC1A3
:1010A00029893A894B895C89609184027091850213
:1010B0008091860290918702CFCC1092BF0110924E
:1010C000C10181E08093C0018093C2018091CC0175
:1010D0009091CD01A091CE01B091CF0189839A83E7
:1010E000AB83BC83C090D001D090D101E090D201FD
:1010F000F090D301A7019601BC01CD014AD5698BBF
:101100007A8B8B8B9C8B8090D4019090D501A09092
:10111000D601B090D701A7019601C501B40139D518
:101120006D877E878F87988B29813A814B815C817F
:10113000C501B4012ED5698F7A8F8B8F9C8F8091DA
:10114000700290917102A0917202B09173028D832E
:101150009E83AF83B8879C01AD01C701B6017ED5E0
:1011600018160CF0F5C380916C0290916D02A0915D
:101170006E02B0916F028D8F9E8FAF8FB8A39C01CE
:10118000AD0169817A818B819C8168D5181644F103
:10119000298D3A8D4B8D5C8D60917C0270917D0222
:1011A00080917E0290917F0259D51816CCF02D8146
:1011B0003E814F815885C701B60150D5181684F07D
:1011C00029893A894B895C896091800270918102FA
:1011D000809182029091830241D518160CF02DC2A5
:1011E000A501940169817A818B819C81D2D46DA300
:1011F0007EA38FA398A72D813E814F815885C7017B
:10120000B6012CD5181684F029893A894B895C8956
:10121000609180027091810280918202909183029C
:101220001DD518160CF055CA809174029091750264
:10123000A0917602B091770289A39AA3ABA3BCA335
:101240009C01AD01C501B40109D5181644F12DA1C9
:101250003EA14FA158A560918402709185028091B2
:10126000860290918702FAD41816CCF02D813E8127
:101270004F815885C701B601F1D4181684F02D8529
:101280003E854F85588960918002709181028091DE
:10129000820290918302E2D418160CF01ACA409090
:1012A000C8015090C9016090CA017090CB01209193
:1012B00068023091690240916A0250916B02C30149
:1012C000B201CCD418160CF4C7C0A3019201C50119
:1012D000B4015FD46D8B7E8B8F8B988F8091780259
:1012E00090917902A0917A02B0917B0289879A87C6
:1012F000AB87BC872D893E894F89588DBC01CD01B4
:10130000ADD418160CF024C2A301920169817A8130
:101310008B819C813ED42B013C01AC019B016985F2
:101320007A858B859C859AD41816DCF02D8D3E8DA0
:101330004F8D58A169817A818B819C818FD4181639
:1013400084F0298D3A8D4B8D5C8D60917C0270917B
:101350007D0280917E0290917F0280D418160CF05D
:10136000F7C1A301920169857A858B859C8576D426
:101370001816CCF02D813E814F815885C701B601EA
:101380006DD4181684F02D853E854F85588960915F
:1013900080027091810280918202909183025ED4DA
:1013A00018160CF056C02D893E894F89588D6985D5
:1013B0007A858B859C8552D41816C4F02D813E8188
:1013C0004F815885C701B60149D418167CF0298988
:1013D0003A894B895C896091800270918102809189
:1013E0008202909183023AD418169CF5A3019201CF
:1013F00069857A858B859C8531D418160CF06DC172
:101400002D893E894F89588D69857A858B859C8584
:1014100025D418160CF129A13AA14BA15CA1C50154
:10142000B4011CD41816C4F02DA13EA14FA158A59B
:1014300048C12D853E854F85588960918002709105
:101440008102809182029091830208D418160CF4D4
:101450009FC882E08093C301AC960FB6F894DEBFBC
:101460000FBECDBFDF91CF91FF90EF90DF90CF9077
:10147000BF90AF909F908F907F906F905F904F90B4
:10148000089529853A854B855C85C301B201E6D371
:10149000181634F12D893E894F89588D6091840248
:1014A000709185028091860290918702D7D3181699
:1014B000BCF0A5019401C701B601D0D3181684F081
:1014C0002D853E854F8558896091800270918102FB
:1014D0008091820290918302C1D318160CF0F9C852
:1014E0002D813E814F81588569817A818B819C81D4
:1014F00050D369A77AA78BA79CA729853A854B85E6
:101500005C85C301B201AAD3181684F02D893E89E7
:101510004F89588D60918402709185028091860276
:10152000909187029BD318160CF03FC080916C02FB
:1015300090916D02A0916E02B0916F02898F9A8F87
:10154000AB8FBC8F9C01AD016D817E818F819885B1
:1015500085D3181664F129A53AA54BA55CA5609121
:101560007C0270917D0280917E0290917F0276D301
:1015700018160CF446C229853A854B855C85C30153
:10158000B2016CD318160CF44CC22D8D3E8D4F8DCC
:1015900058A1609184027091850280918602909199
:1015A00087025CD318160CF43CC285E053CFA5012A
:1015B0009401C701B60152D318167CF029893A89E3
:1015C0004B895C89609180027091810280918202D6
:1015D0009091830243D3181684F5298D3A8D4B8D53
:1015E0005C8D6D817E818F81988538D318163CF192
:1015F00029A53AA54BA55CA560917C0270917D025E
:1016000080917E0290917F0229D31816C4F0A50123
:101610009401C701B60122D318168CF02D853E85A2
:101620004F85588960918002709181028091820279
:101630009091830213D3181614F084E00BCF298500
:101640003A854B855C85C301B20108D318167CF03E
:101650002D8D3E8D4F8D58A1609184027091850231
:101660008091860290918702F9D21816B4F529A1CB
:101670003AA14BA15CA169817A818B819C81EED2D8
:1016800018160CF4E9CE2DA13EA14FA158A56091EA
:1016900078027091790280917A0290917B02DED279
:1016A00018160CF4D9CE29853A854B855C85C30183
:1016B000B201D4D218160CF4CFCE2D893E894F89B1
:1016C000588D60918402709185028091860290917C
:1016D0008702C4D218160CF4BFCE83E0BBCE409074
:1016E0007C0250907D0260907E0270907F022D8976
:1016F0003E894F89588DC301B201B0D2181644F506
:101700002D853E854F855889C301B201A7D2181691
:101710000CF43BC8209168023091690240916A0242
:1017200050916B02C701B60199D218160CF42DC85E
:10173000298D3A8D4B8D5C8D609178027091790284
:1017400080917A0290917B0289D218160CF41DC800
:1017500081E080CE2D813E814F815885C501B40145
:101760007DD218160CF0EFC829893A894B895C891B
:1017700069857A858B859C8571D218160CF46CCEA0
:1017800011C929893A894B895C89609180027091DD
:101790008102809182029091830260D218160CF42B
:1017A000BDC957CE29853A854B855C85C301B201F9
:1017B00055D218160CF440C0C0907C02D0907D0227
:1017C000E0907E02F0907F022D893E894F89588DEE
:1017D000C701B60143D218160CF0BACF2D8D3E8D3D
:1017E0004F8D58A1C701B60139D21816DCF029A1D6
:1017F0003AA14BA15CA16D817E818F8198852ED20B
:10180000181684F02DA13EA14FA158A56091780231
:101810007091790280917A0290917B021FD2181602
:101820000CF096CF2D8D3E8D4F8D58A1C701B6017E
:1018300015D218160CF0B9CE2D853E854F855889E6
:1018400069817A818B819C8109D218160CF404CEAF
:10185000298D3A8D4B8D5C8D60918402709185024B
:101860008091860290918702F9D118160CF4F4CD7C
:1018700029853A854B855C85C301B201EFD11816E5
:101880000CF4EACD2D893E894F89588D60917C02F8
:1018900070917D0280917E0290917F02DFD11816B7
:1018A0000CF083CED9CD2D893E894F89588D60911A
:1018B00078027091790280917A0290917B02CED168
:1018C00018160CF4CECA2D813E814F815885C70170
:1018D000B601C4D118160CF4C4CA29893A894B89B7
:1018E0005C8960918402709185028091860290915A
:1018F0008702B4D118160CF0F0CE2D853E854F85A9
:10190000588960918402709185028091860290913D
:101910008702A4D118160CF4AECA29853A854B85E6
:101920005C85C501B4019AD118160CF4A4CA2D8D9A
:101930003E8D4F8D58A1609178027091790280910F
:101940007A0290917B028AD118160CF494CAC5CE03
:101950002D853E854F855889609180027091810266
:10196000809182029091830279D118160CF4FBCBFE
:1019700064CE80907C0290907D02A0907E02B09018
:101980007F022D893E894F89588DC501B40166D1EA
:1019900018160CF00ACE2D853E854F855889C50155
:1019A000B4015CD1181614F40C94FC00209174025C
:1019B000309175024091760250917702C701B601CD
:1019C0004DD1181614F40C94FC00298D3A8D4B8DD2
:1019D0005C8D609184027091850280918602909165
:1019E00087023CD1181614F40C94FC00DECD213093
:1019F00089F4813011F40C946903913009F02CCDF5
:101A00001CCEA5019401C701B60128D118160CF00F
:101A1000D5CDEECD913009F01FCD813009F01CCD30
:101A2000C4CDA5019401C701B60118D118160CF058
:101A3000C5CDEDCDEFEBF1E081E08183828387E0DE
:101A40008093C3010895089540E855E260E070E096
:101A500090E080E000C026E082E291E0C7C21F92E1
:101A60000F920FB60F9211242F933F934F935F93D2
:101A70006F937F938F939F93AF93BF93EF93FF9356
:101A80008BEC93EF909385008093840032D0FF918C
:101A9000EF91BF91AF919F918F917F916F915F91E6
:101AA0004F913F912F910F900FBE0F901F9018955F
:101AB0008BEC93EF9093850080938400AFE6B0E0C9
:101AC0008C918E7F8C93E0E8F0E080818C7F808326
:101AD000E1E8F0E08081877E80838081856080837B
:101AE00080818D7F80838C9181608C93089581E0CB
:101AF00008958091160191E0980F90931601882324
:101B000049F021E030E030931801209317018093D1
:101B10001601089578940E945E00F8948091160151
:101B20008150F5CFCF93DF931092890210928802F3
:101B300058D18ADFC0910001D09101011982188229
:101B400079DFF894B5DF81E028813981232B09F012
:101B500080E0809388027894789480918802811143
:101B600007C071DFF89490E080E0DF91CF91089595
:101B700081E028813981232B09F480E08093890258
:101B80009091890281E0911180E080938802AFDF1B
:101B9000E4CF5058BB27AA270ED09FC090D030F07A
:101BA00095D020F031F49F3F11F41EF485C00EF45F
:101BB000E095E7FB7BC0E92FA1D080F3BA1762075D
:101BC00073078407950718F071F49EF5B9C00EF4F9
:101BD000E0950B2EBA2FA02D0B01B90190010C013D
:101BE000CA01A0011124FF27591B99F0593F50F455
:101BF000503E68F11A16F040A22F232F342F4427AD
:101C0000585FF3CF469537952795A795F0405395A4
:101C1000C9F77EF41F16BA0B620B730B840BBAF074
:101C20009150A1F0FF0FBB1F661F771F881FC2F7DF
:101C30000EC0BA0F621F731F841F48F487957795F3
:101C40006795B795F7959E3F08F0B3CF9395880FAA
:101C500008F09927EE0F97958795089503D008F41B
:101C600081E00895990F0008550FAA0BE0E8FEEFF8
:101C700016161706E807F907C0F012161306E40750
:101C8000F50798F0621B730B840B950B39F40A2649
:101C900061F0232B242B252B21F408950A2609F427
:101CA000A140A6958FEF811D811D089597F99F672B
:101CB00080E870E060E008959FEF80EC08950024D4
:101CC0000A941616170618060906089500240A94A1
:101CD00012161306140605060895092E0394000C27
:101CE00011F4882352F0BB0F40F4BF2B11F460FFB6
:101CF00004C06F5F7F4F8F4F9F4F089557FD9058DF
:101D0000440F551F59F05F3F71F04795880F97FBBF
:101D1000991F61F09F3F79F0879508951216130679
:101D20001406551FF2CF4695F1DF08C016161706A8
:101D30001806991FF1CF86957105610508940895DD
:101D4000E894BB2766277727CB0197F908951F9260
:101D50000F920FB60F9211242F933F938F939F935F
:101D6000AF93BF9380911A0190911B01A0911C0128
:101D7000B0911D013091190123E0230F2D3758F543
:101D80000196A11DB11D2093190180931A01909312
:101D90001B01A0931C01B0931D0180911E01909125
:101DA0001F01A0912001B09121010196A11DB11D3B
:101DB00080931E0190931F01A0932001B0932101F5
:101DC000BF91AF919F918F913F912F910F900FBE37
:101DD0000F901F90189526E8230F0296A11DB11DA4
:101DE000D2CF789484B5826084BD84B5816084BD8F
:101DF00085B5826085BD85B5816085BDEEE6F0E084
:101E0000808181608083E1E8F0E0108280818260DF
:101E10008083808181608083E0E8F0E08081816060
:101E20008083E1EBF0E0808184608083E0EBF0E090
:101E3000808181608083EAE7F0E080818460808334
:101E400080818260808380818160808380818068DE
:101E500080831092C1000895FC01918D228D892FFD
:101E600090E0805C9F4F821B91098F7399270895A2
:101E7000FC01918D828D981731F0828DE80FF11D54
:101E8000858D90E008958FEF9FEF0895FC01918D6F
:101E9000828D981761F0A28DAE0FBF2FB11D5D9698
:101EA0008C91928D9F5F9F73928F90E008958FEF3A
:101EB0009FEF0895FC01538D448D252F30E0842F32
:101EC00090E0821B930B541710F0CF960895019762
:101ED0000895FC01A48DA80FB92FB11DA35ABF4FBF
:101EE0002C91848D90E001968F739927848FA68919
:101EF000B7892C93A089B1898C91837080648C936D
:101F0000938D848D981306C00288F389E02D80811B
:101F10008F7D80830895CF93DF93EC01888D882394
:101F2000B1F0AA89BB89E889F9898C9185FD03C044
:101F3000808186FD0CC00FB607FCF7CF8C9185FF22
:101F4000F2CF808185FFEDCFCE01C3DFEACFDF91F5
:101F5000CF910895EF92FF920F931F93CF93DF934A
:101F6000EC0181E0888F9B8D8C8D98131AC0E889D5
:101F7000F989808185FF15C09FB7F894EE89FF89A4
:101F80006083E889F98980818370806480839FBF42
:101F900081E090E0DF91CF911F910F91FF90EF9042
:101FA0000895F62E0B8D10E00F5F1F4F0F73112752
:101FB000E02E8C8D8E110BC00FB607FCFACFE8898E
:101FC000F989808185FFF5CFCE0183DFF2CFEB8DDC
:101FD000EC0FFD2FF11DE35AFF4FF0829FB7F894ED
:101FE0000B8FEA89FB8980818062D0CFCF92DF920C
:101FF000EF92FF921F93CF93DF93EC016A017B0175
:10200000122FE889F98982E08083C11481EED80615
:10201000E104F10499F060E079E08DE390E0A7013C
:102020009601F5D02150310941095109569547953E
:1020300037952795211580E1380790F0E889F989CF
:10204000108260E874E88EE190E0A7019601DFD08D
:1020500021503109410951095695479537952795E2
:10206000EC85FD853083EE85FF852083188EEC8915
:10207000FD891083EA89FB89808180618083EA89F8
:10208000FB89808188608083EA89FB898081806800
:102090008083EA89FB8980818F7D8083DF91CF9166
:1020A0001F91FF90EF90DF90CF9008951F920F92B5
:1020B0000FB60F9211242F938F939F93EF93FF935B
:1020C000E0913201F09133018081E0913801F0918B
:1020D000390182FD1BC0908180913B018F5F8F731E
:1020E00020913C01821741F0E0913B01F0E0EE5D70
:1020F000FE4F958F80933B01FF91EF919F918F91C0
:102100002F910F900FBE0F901F9018958081F4CFE4
:102110001F920F920FB60F9211242F933F934F935C
:102120005F936F937F938F939F93AF93BF93EF933F
:10213000FF9382E291E0CDDEFF91EF91BF91AF91ED
:102140009F918F917F916F915F914F913F912F91CF
:102150000F900FBE0F901F901895E2E2F1E01382EE
:10216000128288EE93E0A0E0B0E084839583A6839A
:10217000B78386E091E09183808385EC90E095873A
:10218000848784EC90E09787868780EC90E0918B41
:10219000808B81EC90E0938B828B82EC90E0958B2E
:1021A000848B86EC90E0978B868B118E128E138E2B
:1021B000148E0895AF92BF92CF92DF92EF92FF926A
:1021C0000F931F93CF93DF936C017B018B01040F5F
:1021D000151FEB015E01AE18BF08C017D10759F0FB
:1021E0006991D601ED91FC910190F081E02DC6013D
:1021F0000995892B79F7C501DF91CF911F910F9137
:10220000FF90EF90DF90CF90BF90AF900895A1E244
:102210001A2EAA1BBB1BFD010DC0AA1FBB1FEE1F60
:10222000FF1FA217B307E407F50720F0A21BB30BAB
:10223000E40BF50B661F771F881F991F1A9469F727
:1022400060957095809590959B01AC01BD01CF0183
:102250000895EE0FFF1F0590F491E02D0994F89476
:02226000FFCFAE
:10226200140100000000AA0FDA105A0F8B0F2C0F76
:04227200460F380FCC
:00000001FF
